S00D00004C616262322E7372656374
S11300000C942E000C944B000C944B000C94A50003
S11300100C944B000C944B000C944B000C94CA00B1
S11300200C944B000C944B000C944B000C944B0020
S11300300C944B000C944B000C944B000C944B0010
S11300400C944B000C944B000C944B000C944B0000
S11300500C944B000C944B000C944B0011241FBEC9
S1130060CFEFD4E0DEBFCDBF11E0A0E0B1E0E2E627
S1130070F2E002C005900D92A230B107D9F723E057
S1130080A2E0B1E001C01D92A532B207E1F70E94DF
S11300904D000C942F010C94000080E090E0089532
S11300A0DC0115961C921E921497DB01ED91FC91D4
S11300B01197309721F48D939C930895F90124812D
S11300C0358121153105D1F7958384830895DC01A9
S11300D0ED91FC911197309709F4FFCF248135817C
S11300E02D933C93CF010895CF93DF9300D0CDB7E8
S11300F0DEB79A838983809100019091010106966D
S11301000E94EE00892B59F489819A819093010110
S11301108093000161E070E006960E940E010F904A
S11301200F90DF91CF910895F89462E071E080918F
S11301300001909101010E94500082E091E00E9430
S113014067000E947400789408951F920F920FB66E
S11301500F9211242F933F934F935F936F937F9349
S11301608F939F93AF93BF93EF93FF931F990E9435
S11301709400FF91EF91BF91AF919F918F917F91E7
S11301806F915F914F913F912F910F900FBE0F9000
S11301901F9018951F920F920FB60F9211242F9350
S11301A03F934F935F936F937F938F939F93AF93FB
S11301B0BF93EF93FF930E949400FF91EF91BF913F
S11301C0AF919F918F917F916F915F914F913F91EB
S11301D02F910F900FBE0F901F901895DC012D9258
S11301E03D924D925D926D927D928D929D92AD92D3
S11301F0BD92CD92DD92ED92FD920D931D93CD9320
S1130200DD93FF91EF918DB78D938EB78D938FB75B
S11302108D93ED93FD93882799270994DC01CB01F5
S113022081309105811D2D903D904D905D906D9094
S11302307D908D909D90AD90BD90CD90DD90ED9092
S1130240FD900D911D91CD91DD91ED91FD910D905C
S1130250F894FEBF0FBEEDBFED91FD910994F894A3
S1050260FFCFCA
S1050262040191
S9030000FC
